{
  "contractName": "Patient",
  "abi": [
    {
      "constant": false,
      "inputs": [
        {
          "internalType": "address",
          "name": "pat",
          "type": "address"
        }
      ],
      "name": "addPatient",
      "outputs": [],
      "payable": false,
      "stateMutability": "nonpayable",
      "type": "function"
    },
    {
      "constant": false,
      "inputs": [
        {
          "internalType": "address",
          "name": "doc",
          "type": "address"
        },
        {
          "internalType": "address",
          "name": "pat",
          "type": "address"
        },
        {
          "internalType": "uint256",
          "name": "fee",
          "type": "uint256"
        }
      ],
      "name": "addAuthorization",
      "outputs": [],
      "payable": true,
      "stateMutability": "payable",
      "type": "function"
    },
    {
      "constant": true,
      "inputs": [
        {
          "internalType": "address",
          "name": "pat",
          "type": "address"
        }
      ],
      "name": "viewPrescription",
      "outputs": [
        {
          "internalType": "string[]",
          "name": "",
          "type": "string[]"
        }
      ],
      "payable": false,
      "stateMutability": "view",
      "type": "function"
    },
    {
      "constant": false,
      "inputs": [
        {
          "internalType": "string",
          "name": "presc",
          "type": "string"
        },
        {
          "internalType": "address",
          "name": "pat",
          "type": "address"
        },
        {
          "internalType": "address payable",
          "name": "doc",
          "type": "address"
        }
      ],
      "name": "setPrescription",
      "outputs": [],
      "payable": false,
      "stateMutability": "nonpayable",
      "type": "function"
    },
    {
      "constant": true,
      "inputs": [
        {
          "internalType": "address",
          "name": "doc",
          "type": "address"
        },
        {
          "internalType": "address",
          "name": "pat",
          "type": "address"
        }
      ],
      "name": "isAuthorized",
      "outputs": [
        {
          "internalType": "bool",
          "name": "",
          "type": "bool"
        }
      ],
      "payable": false,
      "stateMutability": "view",
      "type": "function"
    },
    {
      "constant": true,
      "inputs": [
        {
          "internalType": "address",
          "name": "pat",
          "type": "address"
        }
      ],
      "name": "isPatient",
      "outputs": [
        {
          "internalType": "bool",
          "name": "",
          "type": "bool"
        }
      ],
      "payable": false,
      "stateMutability": "view",
      "type": "function"
    }
  ],
  "bytecode": "0x608060405234801561001057600080fd5b50610f12806100206000396000f3fe6080604052600436106100555760003560e01c80631a8cd0411461005a57806365e4ad9e146100765780636d263ceb146100b35780638f9c79ed146100dc578063bd724bd314610119578063e15ad43014610156575b600080fd5b610074600480360361006f9190810190610a3a565b61017f565b005b34801561008257600080fd5b5061009d600480360361009891908101906109fe565b610353565b6040516100aa9190610ca3565b60405180910390f35b3480156100bf57600080fd5b506100da60048036036100d591908101906109d5565b6103dc565b005b3480156100e857600080fd5b5061010360048036036100fe91908101906109d5565b610507565b6040516101109190610ca3565b60405180910390f35b34801561012557600080fd5b50610140600480360361013b91908101906109d5565b61055d565b60405161014d9190610c81565b60405180910390f35b34801561016257600080fd5b5061017d60048036036101789190810190610a89565b610685565b005b6000600360008473ffffffffffffffffffffffffffffffffffffffff1673ffffffffffffffffffffffffffffffffffffffff16815260200190815260200160002060008573ffffffffffffffffffffffffffffffffffffffff1673ffffffffffffffffffffffffffffffffffffffff168152602001908152602001600020541461023e576040517f08c379a000000000000000000000000000000000000000000000000000000000815260040161023590610cde565b60405180910390fd5b80341015610281576040517f08c379a000000000000000000000000000000000000000000000000000000000815260040161027890610cbe565b60405180910390fd5b346000808473ffffffffffffffffffffffffffffffffffffffff1673ffffffffffffffffffffffffffffffffffffffff1681526020019081526020016000206000828254019250508190555080600360008473ffffffffffffffffffffffffffffffffffffffff1673ffffffffffffffffffffffffffffffffffffffff16815260200190815260200160002060008573ffffffffffffffffffffffffffffffffffffffff1673ffffffffffffffffffffffffffffffffffffffff16815260200190815260200160002081905550505050565b600080600360008473ffffffffffffffffffffffffffffffffffffffff1673ffffffffffffffffffffffffffffffffffffffff16815260200190815260200160002060008573ffffffffffffffffffffffffffffffffffffffff1673ffffffffffffffffffffffffffffffffffffffff1681526020019081526020016000205411905092915050565b600160008273ffffffffffffffffffffffffffffffffffffffff1673ffffffffffffffffffffffffffffffffffffffff16815260200190815260200160002060009054906101000a900460ff1615610469576040517f08c379a000000000000000000000000000000000000000000000000000000000815260040161046090610cfe565b60405180910390fd5b60008060008373ffffffffffffffffffffffffffffffffffffffff1673ffffffffffffffffffffffffffffffffffffffff1681526020019081526020016000208190555060018060008373ffffffffffffffffffffffffffffffffffffffff1673ffffffffffffffffffffffffffffffffffffffff16815260200190815260200160002060006101000a81548160ff02191690831515021790555050565b6000600160008373ffffffffffffffffffffffffffffffffffffffff1673ffffffffffffffffffffffffffffffffffffffff16815260200190815260200160002060009054906101000a900460ff169050919050565b6060600260008373ffffffffffffffffffffffffffffffffffffffff1673ffffffffffffffffffffffffffffffffffffffff168152602001908152602001600020805480602002602001604051908101604052809291908181526020016000905b8282101561067a578382906000526020600020018054600181600116156101000203166002900480601f0160208091040260200160405190810160405280929190818152602001828054600181600116156101000203166002900480156106665780601f1061063b57610100808354040283529160200191610666565b820191906000526020600020905b81548152906001019060200180831161064957829003601f168201915b5050505050815260200190600101906105be565b505050509050919050565b600260008373ffffffffffffffffffffffffffffffffffffffff1673ffffffffffffffffffffffffffffffffffffffff1681526020019081526020016000208390806001815401808255809150509060018203906000526020600020016000909192909190915090805190602001906106ff92919061089d565b50506000600360008473ffffffffffffffffffffffffffffffffffffffff1673ffffffffffffffffffffffffffffffffffffffff16815260200190815260200160002060008373ffffffffffffffffffffffffffffffffffffffff1673ffffffffffffffffffffffffffffffffffffffff168152602001908152602001600020549050806000808573ffffffffffffffffffffffffffffffffffffffff1673ffffffffffffffffffffffffffffffffffffffff168152602001908152602001600020600082825403925050819055506000600360008573ffffffffffffffffffffffffffffffffffffffff1673ffffffffffffffffffffffffffffffffffffffff16815260200190815260200160002060008473ffffffffffffffffffffffffffffffffffffffff1673ffffffffffffffffffffffffffffffffffffffff168152602001908152602001600020819055508173ffffffffffffffffffffffffffffffffffffffff166108fc829081150290604051600060405180830381858888f19350505050158015610896573d6000803e3d6000fd5b5050505050565b828054600181600116156101000203166002900490600052602060002090601f016020900481019282601f106108de57805160ff191683800117855561090c565b8280016001018555821561090c579182015b8281111561090b5782518255916020019190600101906108f0565b5b509050610919919061091d565b5090565b61093f91905b8082111561093b576000816000905550600101610923565b5090565b90565b60008135905061095181610e8a565b92915050565b60008135905061096681610ea1565b92915050565b600082601f83011261097d57600080fd5b813561099061098b82610d4b565b610d1e565b915080825260208301602083018583830111156109ac57600080fd5b6109b7838284610e37565b50505092915050565b6000813590506109cf81610eb8565b92915050565b6000602082840312156109e757600080fd5b60006109f584828501610942565b91505092915050565b60008060408385031215610a1157600080fd5b6000610a1f85828601610942565b9250506020610a3085828601610942565b9150509250929050565b600080600060608486031215610a4f57600080fd5b6000610a5d86828701610942565b9350506020610a6e86828701610942565b9250506040610a7f868287016109c0565b9150509250925092565b600080600060608486031215610a9e57600080fd5b600084013567ffffffffffffffff811115610ab857600080fd5b610ac48682870161096c565b9350506020610ad586828701610942565b9250506040610ae686828701610957565b9150509250925092565b6000610afc8383610b88565b905092915050565b6000610b0f82610d87565b610b198185610daa565b935083602082028501610b2b85610d77565b8060005b85811015610b675784840389528151610b488582610af0565b9450610b5383610d9d565b925060208a01995050600181019050610b2f565b50829750879550505050505092915050565b610b8281610e01565b82525050565b6000610b9382610d92565b610b9d8185610dbb565b9350610bad818560208601610e46565b610bb681610e79565b840191505092915050565b6000610bce601583610dcc565b91507f416d6f756e74206e6f742073756666696369656e7400000000000000000000006000830152602082019050919050565b6000610c0e601a83610dcc565b91507f446f63746f7220616c726561647920617574686f72697a65642e0000000000006000830152602082019050919050565b6000610c4e601683610dcc565b91507f50617469656e7420616c726561647920657869737473000000000000000000006000830152602082019050919050565b60006020820190508181036000830152610c9b8184610b04565b905092915050565b6000602082019050610cb86000830184610b79565b92915050565b60006020820190508181036000830152610cd781610bc1565b9050919050565b60006020820190508181036000830152610cf781610c01565b9050919050565b60006020820190508181036000830152610d1781610c41565b9050919050565b6000604051905081810181811067ffffffffffffffff82111715610d4157600080fd5b8060405250919050565b600067ffffffffffffffff821115610d6257600080fd5b601f19601f8301169050602081019050919050565b6000819050602082019050919050565b600081519050919050565b600081519050919050565b6000602082019050919050565b600082825260208201905092915050565b600082825260208201905092915050565b600082825260208201905092915050565b6000610de882610e0d565b9050919050565b6000610dfa82610e0d565b9050919050565b60008115159050919050565b600073ffffffffffffffffffffffffffffffffffffffff82169050919050565b6000819050919050565b82818337600083830152505050565b60005b83811015610e64578082015181840152602081019050610e49565b83811115610e73576000848401525b50505050565b6000601f19601f8301169050919050565b610e9381610ddd565b8114610e9e57600080fd5b50565b610eaa81610def565b8114610eb557600080fd5b50565b610ec181610e2d565b8114610ecc57600080fd5b5056fea365627a7a72315820ac5ff2606ca1acae0877b7c75ae6cd798812a590e4760144cd653c00c03090b46c6578706572696d656e74616cf564736f6c63430005100040",
  "source": "// SPDX-License-Identifier: GPL-3.0\r\npragma solidity >=0.5.0 <0.8.0;\r\npragma experimental ABIEncoderV2;\r\n\r\ncontract Patient {\r\n    mapping(address => uint256) patientBalance;\r\n    mapping(address => bool) isExists;\r\n    mapping(address => string[]) prescriptions;\r\n    mapping(address => mapping(address => uint256)) authorized;\r\n\r\n    modifier checkExistence(address pat) {\r\n        require(isExists[pat], \"Patient does not exists\");\r\n        _;\r\n    }\r\n\r\n    function addPatient(address pat) public {\r\n        require(!isExists[pat], \"Patient already exists\");\r\n        patientBalance[pat] = 0;\r\n        isExists[pat] = true;\r\n    }\r\n\r\n    function addAuthorization(\r\n        address doc,\r\n        address pat,\r\n        uint256 fee\r\n    ) external payable {\r\n        require(authorized[pat][doc] == 0, \"Doctor already authorized.\");\r\n        require(msg.value >= fee, \"Amount not sufficient\");\r\n        patientBalance[pat] += msg.value;\r\n        authorized[pat][doc] = fee;\r\n    }\r\n\r\n    function viewPrescription(address pat)\r\n        public\r\n        view\r\n        returns (string[] memory)\r\n    {\r\n        return prescriptions[pat];\r\n    }\r\n\r\n    function setPrescription(\r\n        string memory presc,\r\n        address pat,\r\n        address payable doc\r\n    ) public {\r\n        prescriptions[pat].push(presc);\r\n        uint256 charges = authorized[pat][doc];\r\n        patientBalance[pat] -= charges;\r\n        authorized[pat][doc] = 0;\r\n        doc.transfer(charges);\r\n    }\r\n\r\n    function isAuthorized(address doc, address pat) public view returns (bool) {\r\n        return (authorized[pat][doc] > 0);\r\n    }\r\n\r\n    function isPatient(address pat) public view returns (bool) {\r\n        return isExists[pat];\r\n    }\r\n}\r\n",
  "sourcePath": "F:\\Programming\\WebDev\\medrec\\contracts\\Patient.sol",
  "compiler": {
    "name": "solc",
    "version": "0.5.16+commit.9c3226ce.Emscripten.clang"
  },
  "schemaVersion": "3.4.7",
  "updatedAt": "2022-05-27T04:41:16.187Z",
  "networkType": "ethereum",
  "devdoc": {
    "methods": {}
  },
  "userdoc": {
    "methods": {}
  }
}